{
  "_format": "hh-sol-artifact-1",
  "contractName": "TON_FeeVault",
  "sourceName": "contracts/L2/fee-token/TON_FeeVault.sol",
  "abi": [
    {
      "anonymous": false,
      "inputs": [
        {
          "indexed": false,
          "internalType": "address",
          "name": "",
          "type": "address"
        },
        {
          "indexed": false,
          "internalType": "address",
          "name": "",
          "type": "address"
        }
      ],
      "name": "TransferOwnership",
      "type": "event"
    },
    {
      "anonymous": false,
      "inputs": [
        {
          "indexed": false,
          "internalType": "address",
          "name": "",
          "type": "address"
        },
        {
          "indexed": false,
          "internalType": "address",
          "name": "",
          "type": "address"
        }
      ],
      "name": "UpdateGasPriceOracleAddress",
      "type": "event"
    },
    {
      "anonymous": false,
      "inputs": [
        {
          "indexed": false,
          "internalType": "address",
          "name": "",
          "type": "address"
        },
        {
          "indexed": false,
          "internalType": "uint256",
          "name": "",
          "type": "uint256"
        }
      ],
      "name": "UpdateMaxPriceRatio",
      "type": "event"
    },
    {
      "anonymous": false,
      "inputs": [
        {
          "indexed": false,
          "internalType": "address",
          "name": "",
          "type": "address"
        },
        {
          "indexed": false,
          "internalType": "uint256",
          "name": "",
          "type": "uint256"
        }
      ],
      "name": "UpdateMinPriceRatio",
      "type": "event"
    },
    {
      "anonymous": false,
      "inputs": [
        {
          "indexed": false,
          "internalType": "address",
          "name": "",
          "type": "address"
        },
        {
          "indexed": false,
          "internalType": "uint256",
          "name": "",
          "type": "uint256"
        },
        {
          "indexed": false,
          "internalType": "uint256",
          "name": "",
          "type": "uint256"
        }
      ],
      "name": "UpdatePriceRatio",
      "type": "event"
    },
    {
      "anonymous": false,
      "inputs": [
        {
          "indexed": false,
          "internalType": "address",
          "name": "",
          "type": "address"
        },
        {
          "indexed": false,
          "internalType": "address",
          "name": "",
          "type": "address"
        }
      ],
      "name": "WithdrawTON",
      "type": "event"
    },
    {
      "inputs": [],
      "name": "MIN_WITHDRAWAL_AMOUNT",
      "outputs": [
        {
          "internalType": "uint256",
          "name": "",
          "type": "uint256"
        }
      ],
      "stateMutability": "view",
      "type": "function"
    },
    {
      "inputs": [],
      "name": "feeWallet",
      "outputs": [
        {
          "internalType": "address",
          "name": "",
          "type": "address"
        }
      ],
      "stateMutability": "view",
      "type": "function"
    },
    {
      "inputs": [],
      "name": "gasPriceOracleAddress",
      "outputs": [
        {
          "internalType": "address",
          "name": "",
          "type": "address"
        }
      ],
      "stateMutability": "view",
      "type": "function"
    },
    {
      "inputs": [
        {
          "internalType": "bytes",
          "name": "_txData",
          "type": "bytes"
        }
      ],
      "name": "getL1TonFee",
      "outputs": [
        {
          "internalType": "uint256",
          "name": "",
          "type": "uint256"
        }
      ],
      "stateMutability": "view",
      "type": "function"
    },
    {
      "inputs": [
        {
          "internalType": "address payable",
          "name": "_feeWallet",
          "type": "address"
        },
        {
          "internalType": "address",
          "name": "_l2TonAddress",
          "type": "address"
        }
      ],
      "name": "initialize",
      "outputs": [],
      "stateMutability": "nonpayable",
      "type": "function"
    },
    {
      "inputs": [],
      "name": "l2TonAddress",
      "outputs": [
        {
          "internalType": "address",
          "name": "",
          "type": "address"
        }
      ],
      "stateMutability": "view",
      "type": "function"
    },
    {
      "inputs": [],
      "name": "marketPriceRatio",
      "outputs": [
        {
          "internalType": "uint256",
          "name": "",
          "type": "uint256"
        }
      ],
      "stateMutability": "view",
      "type": "function"
    },
    {
      "inputs": [],
      "name": "maxPriceRatio",
      "outputs": [
        {
          "internalType": "uint256",
          "name": "",
          "type": "uint256"
        }
      ],
      "stateMutability": "view",
      "type": "function"
    },
    {
      "inputs": [],
      "name": "minPriceRatio",
      "outputs": [
        {
          "internalType": "uint256",
          "name": "",
          "type": "uint256"
        }
      ],
      "stateMutability": "view",
      "type": "function"
    },
    {
      "inputs": [],
      "name": "owner",
      "outputs": [
        {
          "internalType": "address",
          "name": "",
          "type": "address"
        }
      ],
      "stateMutability": "view",
      "type": "function"
    },
    {
      "inputs": [],
      "name": "priceRatio",
      "outputs": [
        {
          "internalType": "uint256",
          "name": "",
          "type": "uint256"
        }
      ],
      "stateMutability": "view",
      "type": "function"
    },
    {
      "inputs": [
        {
          "internalType": "address",
          "name": "",
          "type": "address"
        }
      ],
      "name": "tonFeeTokenUsers",
      "outputs": [
        {
          "internalType": "bool",
          "name": "",
          "type": "bool"
        }
      ],
      "stateMutability": "view",
      "type": "function"
    },
    {
      "inputs": [
        {
          "internalType": "address",
          "name": "_newOwner",
          "type": "address"
        }
      ],
      "name": "transferOwnership",
      "outputs": [],
      "stateMutability": "nonpayable",
      "type": "function"
    },
    {
      "inputs": [
        {
          "internalType": "address",
          "name": "_gasPriceOracleAddress",
          "type": "address"
        }
      ],
      "name": "updateGasPriceOracleAddress",
      "outputs": [],
      "stateMutability": "nonpayable",
      "type": "function"
    },
    {
      "inputs": [
        {
          "internalType": "uint256",
          "name": "_maxPriceRatio",
          "type": "uint256"
        }
      ],
      "name": "updateMaxPriceRatio",
      "outputs": [],
      "stateMutability": "nonpayable",
      "type": "function"
    },
    {
      "inputs": [
        {
          "internalType": "uint256",
          "name": "_minPriceRatio",
          "type": "uint256"
        }
      ],
      "name": "updateMinPriceRatio",
      "outputs": [],
      "stateMutability": "nonpayable",
      "type": "function"
    },
    {
      "inputs": [
        {
          "internalType": "uint256",
          "name": "_priceRatio",
          "type": "uint256"
        },
        {
          "internalType": "uint256",
          "name": "_marketPriceRatio",
          "type": "uint256"
        }
      ],
      "name": "updatePriceRatio",
      "outputs": [],
      "stateMutability": "nonpayable",
      "type": "function"
    },
    {
      "inputs": [],
      "name": "withdrawTON",
      "outputs": [],
      "stateMutability": "nonpayable",
      "type": "function"
    },
    {
      "stateMutability": "payable",
      "type": "receive"
    }
  ],
  "bytecode": "0x60806040526113886003556101f4600455600680546001600160a01b03191673420000000000000000000000000000000000000f17905534801561004257600080fd5b506112b2806100526000396000f3fe60806040526004361061012c5760003560e01c8063bc9bd6ee116100a5578063d86732ef11610074578063f2fde38b11610059578063f2fde38b1461036d578063f3bae2df1461038d578063fa84d92f146103ba57600080fd5b8063d86732ef1461032a578063f25f4b561461034057600080fd5b8063bc9bd6ee146102b6578063c8a05413146102d6578063d2e1fb22146102f6578063d3e5792b1461030c57600080fd5b8063485cc955116100fc5780637728195c116100e15780637728195c146102195780638da5cb5b1461026b5780638fcfc8131461029657600080fd5b8063485cc955146101b95780635a791a12146101d957600080fd5b80625c5fb2146101385780630aa2f4201461015a57806315a0c1ac1461018357806341fb67c21461019957600080fd5b3661013357005b600080fd5b34801561014457600080fd5b50610158610153366004610f77565b6103cf565b005b34801561016657600080fd5b5061017060055481565b6040519081526020015b60405180910390f35b34801561018f57600080fd5b5061017060085481565b3480156101a557600080fd5b506101706101b4366004610fbf565b6104e7565b3480156101c557600080fd5b506101586101d43660046110b3565b6105a5565b3480156101e557600080fd5b506102096101f43660046110ec565b60076020526000908152604090205460ff1681565b604051901515815260200161017a565b34801561022557600080fd5b506006546102469073ffffffffffffffffffffffffffffffffffffffff1681565b60405173ffffffffffffffffffffffffffffffffffffffff909116815260200161017a565b34801561027757600080fd5b5060005473ffffffffffffffffffffffffffffffffffffffff16610246565b3480156102a257600080fd5b506101586102b13660046110ec565b610700565b3480156102c257600080fd5b506101586102d1366004611109565b6108b7565b3480156102e257600080fd5b506101586102f1366004610f77565b6109f6565b34801561030257600080fd5b5061017060045481565b34801561031857600080fd5b50610170691fc3842bd1f071c0000081565b34801561033657600080fd5b5061017060035481565b34801561034c57600080fd5b506001546102469073ffffffffffffffffffffffffffffffffffffffff1681565b34801561037957600080fd5b506101586103883660046110ec565b610ad7565b34801561039957600080fd5b506002546102469073ffffffffffffffffffffffffffffffffffffffff1681565b3480156103c657600080fd5b50610158610c7a565b60005473ffffffffffffffffffffffffffffffffffffffff163314610455576040517f08c379a000000000000000000000000000000000000000000000000000000000815260206004820152601760248201527f63616c6c6572206973206e6f7420746865206f776e657200000000000000000060448201526064015b60405180910390fd5b60035481111580156104675750600081115b61047057600080fd5b60048190557f680f379280fc8680df45c979a924c0084a250758604482cb01dadedbaa1c09c96104b560005473ffffffffffffffffffffffffffffffffffffffff1690565b6040805173ffffffffffffffffffffffffffffffffffffffff909216825260208201849052015b60405180910390a150565b6006546005546040517f49948e0e00000000000000000000000000000000000000000000000000000000815260009273ffffffffffffffffffffffffffffffffffffffff16919082906349948e0e90610544908790600401611196565b60206040518083038186803b15801561055c57600080fd5b505afa158015610570573d6000803e3d6000fd5b505050506040513d601f19601f8201168201806040525081019061059491906111a9565b61059e91906111c2565b9392505050565b60015473ffffffffffffffffffffffffffffffffffffffff1615610625576040517f08c379a000000000000000000000000000000000000000000000000000000000815260206004820152601d60248201527f436f6e747261637420686173206265656e20696e697469616c697a6564000000604482015260640161044c565b73ffffffffffffffffffffffffffffffffffffffff82161580159061065f575073ffffffffffffffffffffffffffffffffffffffff811615155b61066857600080fd5b6001805473ffffffffffffffffffffffffffffffffffffffff9384167fffffffffffffffffffffffff000000000000000000000000000000000000000091821617909155600280549290931691811691909117909155600080548216331790556006805490911673420000000000000000000000000000000000000f1790556113886003556107d060058190556101f4600455600855565b60005473ffffffffffffffffffffffffffffffffffffffff163314610781576040517f08c379a000000000000000000000000000000000000000000000000000000000815260206004820152601760248201527f63616c6c6572206973206e6f7420746865206f776e6572000000000000000000604482015260640161044c565b803b6107e9576040517f08c379a000000000000000000000000000000000000000000000000000000000815260206004820152600e60248201527f4163636f756e7420697320454f41000000000000000000000000000000000000604482015260640161044c565b73ffffffffffffffffffffffffffffffffffffffff811661080957600080fd5b6006805473ffffffffffffffffffffffffffffffffffffffff83167fffffffffffffffffffffffff00000000000000000000000000000000000000009091161790557f226bf99888a1e70d41ce744b11ce2acd4d1d1b8cf4ad17a0e72e67acff4bf5a761088b60005473ffffffffffffffffffffffffffffffffffffffff1690565b6040805173ffffffffffffffffffffffffffffffffffffffff92831681529184166020830152016104dc565b60005473ffffffffffffffffffffffffffffffffffffffff163314610938576040517f08c379a000000000000000000000000000000000000000000000000000000000815260206004820152601760248201527f63616c6c6572206973206e6f7420746865206f776e6572000000000000000000604482015260640161044c565b600354821115801561094c57506004548210155b61095557600080fd5b600354811115801561096957506004548110155b61097257600080fd5b600582905560088190557f23632bbb735dece542dac9735a2ba4253234eb119ce45cdf9968cbbe12aa67906109bc60005473ffffffffffffffffffffffffffffffffffffffff1690565b6040805173ffffffffffffffffffffffffffffffffffffffff90921682526020820185905281018390526060015b60405180910390a15050565b60005473ffffffffffffffffffffffffffffffffffffffff163314610a77576040517f08c379a000000000000000000000000000000000000000000000000000000000815260206004820152601760248201527f63616c6c6572206973206e6f7420746865206f776e6572000000000000000000604482015260640161044c565b6004548110158015610a895750600081115b610a9257600080fd5b60038190557f7a28f69b71e51c4a30f620a2cfe4ce5aad2cd3fe5cc9647e400e252b65033d416104b560005473ffffffffffffffffffffffffffffffffffffffff1690565b60005473ffffffffffffffffffffffffffffffffffffffff163314610b58576040517f08c379a000000000000000000000000000000000000000000000000000000000815260206004820152601760248201527f63616c6c6572206973206e6f7420746865206f776e6572000000000000000000604482015260640161044c565b73ffffffffffffffffffffffffffffffffffffffff8116610bfb576040517f08c379a000000000000000000000000000000000000000000000000000000000815260206004820152602660248201527f4f776e61626c653a206e6577206f776e657220697320746865207a65726f206160448201527f6464726573730000000000000000000000000000000000000000000000000000606482015260840161044c565b6000805473ffffffffffffffffffffffffffffffffffffffff8381167fffffffffffffffffffffffff000000000000000000000000000000000000000083168117909355604080519190921680825260208201939093527f5c486528ec3e3f0ea91181cff8116f02bfa350e03b8b6f12e00765adbb5af85c91016109ea565b6002546040517f70a08231000000000000000000000000000000000000000000000000000000008152306004820152691fc3842bd1f071c000009173ffffffffffffffffffffffffffffffffffffffff16906370a082319060240160206040518083038186803b158015610ced57600080fd5b505afa158015610d01573d6000803e3d6000fd5b505050506040513d601f19601f82011682018060405250810190610d2591906111a9565b1015610dd9576040517f08c379a000000000000000000000000000000000000000000000000000000000815260206004820152605460248201527f546f6e5f47617350726963654f7261636c653a207769746864726177616c206160448201527f6d6f756e74206d7573742062652067726561746572207468616e206d696e696d60648201527f756d207769746864726177616c20616d6f756e74000000000000000000000000608482015260a40161044c565b6002546001546040517f70a082310000000000000000000000000000000000000000000000000000000081523060048201527342000000000000000000000000000000000000109263a3a795489273ffffffffffffffffffffffffffffffffffffffff9182169291169082906370a082319060240160206040518083038186803b158015610e6657600080fd5b505afa158015610e7a573d6000803e3d6000fd5b505050506040513d601f19601f82011682018060405250810190610e9e91906111a9565b6000604051806020016040528060008152506040518663ffffffff1660e01b8152600401610ed0959493929190611226565b600060405180830381600087803b158015610eea57600080fd5b505af1158015610efe573d6000803e3d6000fd5b505050507f136a4c9d78f320da91698e7c77773d4ceed7aa70a4cf814632122d28743170fd610f4260005473ffffffffffffffffffffffffffffffffffffffff1690565b6001546040805173ffffffffffffffffffffffffffffffffffffffff93841681529290911660208301520160405180910390a1565b600060208284031215610f8957600080fd5b5035919050565b7f4e487b7100000000000000000000000000000000000000000000000000000000600052604160045260246000fd5b600060208284031215610fd157600080fd5b813567ffffffffffffffff80821115610fe957600080fd5b818401915084601f830112610ffd57600080fd5b81358181111561100f5761100f610f90565b604051601f82017fffffffffffffffffffffffffffffffffffffffffffffffffffffffffffffffe0908116603f0116810190838211818310171561105557611055610f90565b8160405282815287602084870101111561106e57600080fd5b826020860160208301376000928101602001929092525095945050505050565b73ffffffffffffffffffffffffffffffffffffffff811681146110b057600080fd5b50565b600080604083850312156110c657600080fd5b82356110d18161108e565b915060208301356110e18161108e565b809150509250929050565b6000602082840312156110fe57600080fd5b813561059e8161108e565b6000806040838503121561111c57600080fd5b50508035926020909101359150565b6000815180845260005b8181101561115157602081850181015186830182015201611135565b81811115611163576000602083870101525b50601f017fffffffffffffffffffffffffffffffffffffffffffffffffffffffffffffffe0169290920160200192915050565b60208152600061059e602083018461112b565b6000602082840312156111bb57600080fd5b5051919050565b6000817fffffffffffffffffffffffffffffffffffffffffffffffffffffffffffffffff0483118215151615611221577f4e487b7100000000000000000000000000000000000000000000000000000000600052601160045260246000fd5b500290565b600073ffffffffffffffffffffffffffffffffffffffff808816835280871660208401525084604083015263ffffffff8416606083015260a0608083015261127160a083018461112b565b97965050505050505056fea2646970667358221220136a379c91d36c1e8e53cd64b053a51418c702be80c3a6b20cb91670d7c9d27764736f6c63430008090033",
  "linkReferences": {},
  "deployedLinkReferences": {}
}